:020000040000fa
:080000000002040000000000f2
:020000040000fa
:04000800d605000019
:020000040000fa
:04000c00d605000015
:020000040000fa
:04001000d605000011
:020000040000fa
:04001400d60500000d
:020000040000fa
:04001800d605000009
:020000040000fa
:04001c00d605000005
:020000040000fa
:04002000d605000001
:020000040000fa
:04002400d6050000fd
:020000040000fa
:04002800d6050000f9
:020000040000fa
:04002c00d6050000f5
:020000040000fa
:04003000d6050000f1
:020000040000fa
:04003400d6050000ed
:020000040000fa
:04003800d6050000e9
:020000040000fa
:04003c00d6050000e5
:020000040000fa
:04004000d6050000e1
:020000040000fa
:04004400d6050000dd
:020000040000fa
:04004800d6050000d9
:020000040000fa
:04004c00d6050000d5
:020000040000fa
:04005000d6050000d1
:020000040000fa
:04005400360300006f
:020000040000fa
:04005800d6050000c9
:020000040000fa
:04005c00d6050000c5
:020000040000fa
:04006000d6050000c1
:020000040000fa
:04006400d6050000bd
:020000040000fa
:04006800d6050000b9
:020000040000fa
:04006c00d6050000b5
:020000040000fa
:04007000d6050000b1
:020000040000fa
:04007400cc030000b9
:020000040000fa
:04007800d6050000a9
:020000040000fa
:04007c00d6050000a5
:020000040000fa
:04008000d6050000a1
:020000040000fa
:04008400d60500009d
:020000040000fa
:04008800d605000099
:020000040000fa
:04008c00d605000095
:020000040000fa
:04009000d605000091
:020000040000fa
:04009400d60500008d
:020000040000fa
:04009800d605000089
:020000040000fa
:04009c00d605000085
:020000040000fa
:0400a000d605000081
:020000040000fa
:0400a400d60500007d
:020000040000fa
:0400a800d605000079
:020000040000fa
:0400ac00d605000075
:020000040000fa
:0400b000d605000071
:020000040000fa
:0400b400d60500006d
:020000040000fa
:0400b800d605000069
:020000040000fa
:0400bc00d605000065
:020000040000fa
:0400c000d605000061
:020000040000fa
:0400c400d60500005d
:020000040000fa
:0400c800d605000059
:020000040000fa
:0400cc00d605000055
:020000040000fa
:0400d000d605000051
:020000040000fa
:0400d400d60500004d
:020000040000fa
:0400d800d605000049
:020000040000fa
:0400dc00d605000045
:020000040000fa
:0400e000d605000041
:020000040000fa
:0400e400060300000f
:020000040000fa
:0400e800d605000039
:020000040000fa
:0400ec00d605000035
:020000040000fa
:0400f000d605000031
:020000040000fa
:0400f400d60400002e
:020000040000fa
:0400f8001e040000e2
:020000040000fa
:0400fc00d605000025
:020000040000fa
:04010000d605000020
:020000040000fa
:04010400d60500001c
:020000040000fa
:04010800d605000018
:020000040000fa
:04010c00d605000014
:020000040000fa
:04011000d605000010
:020000040000fa
:04011400d60500000c
:020000040000fa
:04011800d605000008
:020000040000fa
:04011c00d605000004
:020000040000fa
:04012000d605000000
:020000040000fa
:04012400d6050000fc
:020000040000fa
:04012800d6050000f8
:020000040000fa
:04012c00d6050000f4
:020000040000fa
:04013000d6050000f0
:020000040000fa
:04013400d6050000ec
:020000040000fa
:04013800d6050000e8
:020000040000fa
:04013c00d6050000e4
:020000040000fa
:04014000d6050000e0
:020000040000fa
:04014400d6050000dc
:020000040000fa
:04014800d6050000d8
:020000040000fa
:04014c00d6050000d4
:020000040000fa
:04015000d6050000d0
:020000040000fa
:04015400d6050000cc
:020000040000fa
:04015800d6050000c8
:020000040000fa
:04015c00d6050000c4
:020000040000fa
:04016000d6050000c0
:020000040000fa
:04016400d6050000bc
:020000040000fa
:04016800d6050000b8
:020000040000fa
:04016c00d6050000b4
:020000040000fa
:04017000d6050000b0
:020000040000fa
:04017400d6050000ac
:020000040000fa
:04017800d6050000a8
:020000040000fa
:04017c00d6050000a4
:020000040000fa
:04018000d6050000a0
:020000040000fa
:04018400d60500009c
:020000040000fa
:04018800d605000098
:020000040000fa
:04018c00d605000094
:020000040000fa
:04019000d605000090
:020000040000fa
:04019400d60500008c
:020000040000fa
:04019800d605000088
:020000040000fa
:04019c00d605000084
:020000040000fa
:0401a000d605000080
:020000040000fa
:0401a400d60500007c
:020000040000fa
:0401a800d605000078
:020000040000fa
:0401ac00d605000074
:020000040000fa
:0401b000d605000070
:020000040000fa
:0401b400d60500006c
:020000040000fa
:0401b800d605000068
:020000040000fa
:0401bc00d605000064
:020000040000fa
:0401c000d605000060
:020000040000fa
:0401c400d60500005c
:020000040000fa
:0401c800d605000058
:020000040000fa
:0401cc00d605000054
:020000040000fa
:0401d000d605000050
:020000040000fa
:0401d400d60500004c
:020000040000fa
:0401d800d605000048
:020000040000fa
:0401dc00d605000044
:020000040000fa
:0401e000d605000040
:020000040000fa
:0401e400d60500003c
:020000040000fa
:0401e800d605000038
:020000040000fa
:0401ec00d605000034
:020000040000fa
:0401f000d605000030
:020000040000fa
:0401f400d60500002c
:020000040000fa
:0401f800d605000028
:020000040000fa
:0401fc00d605000024
:020000040000fa
:04020000d60500001f
:020000040000fa
:04020400d60500001b
:020000040000fa
:04020800d605000017
:020000040000fa
:04020c00d605000013
:020000040000fa
:04021000d60500000f
:020000040000fa
:04021400d60500000b
:020000040000fa
:04021800d605000007
:020000040000fa
:04021c00d605000003
:020000040000fa
:04022000d6050000ff
:020000040000fa
:04022400d6050000fb
:020000040000fa
:04022800d6050000f7
:020000040000fa
:04022c00d6050000f3
:020000040000fa
:04023000d6050000ef
:020000040000fa
:04023400d6050000eb
:020000040000fa
:04023800d6050000e7
:020000040000fa
:04023c00d6050000e3
:020000040000fa
:04024000d6050000df
:020000040000fa
:04024400d6050000db
:020000040000fa
:04024800d6050000d7
:020000040000fa
:04024c00d6050000d3
:020000040000fa
:04025000d6050000cf
:020000040000fa
:04025400d6050000cb
:020000040000fa
:04025800d6050000c7
:020000040000fa
:04025c00d6050000c3
:020000040000fa
:04026000d6050000bf
:020000040000fa
:04026400d6050000bb
:020000040000fa
:100400006f4723000eff27000e0188000000000048
:10041000000020000000e000020032000001200087
:100420002002880014000700570207000000e000c7
:1004300003003a00809d28000100200002003700e0
:100440000000200001002000810f70000100320038
:100450000f000700000020000000e0000200320052
:1004600000000200000000001e89020000000000e1
:100470000040da000000fe00405d20000000e000c7
:1004800002003200002020009001880000000600d9
:10049000a1028800800478000000eb001f003700f4
:1004a000e284440054a0b4009905ba00e2844400f8
:1004b00054a0b4009906ba00e284440054a0b400e9
:1004c0000006eb00476fde00fd07b200ae018800ba
:1004d000636ce10003003a000ad801000000eb0061
:1004e0000e003700606ce10008003a00004deb00a0
:1004f0000a05e800020039003420ec000af0a000f0
:100500008b05e900f9ff3e00040037006168e10057
:10051000010032000086eb000b00070019c7ba008b
:100520000e04e0001905ba0003003a000a00e000da
:10053000dbff3a0000000600fe07b200ae028800b2
:100540008a047800f5ff37000cd0a300e20f4d00bd
:100550001c00390089027800354dba000a05e80010
:10056000020039003420ec000af0a0008b05e900fd
:100570000f003200254dba000a05e80002003900dc
:100580003420ec000af0a0008b05e90008003200de
:100590000c00e0000600320015cdba000a05e800a4
:1005a000020039003420ec000af0a0008b05e900bd
:1005b0008984e80054a0b4000b00e000e2ff3a0098
:1005c000000006009902ba00055d78008b05e9007d
:1005d000f7ff3200c82ade00055d78008b05e900d0
:1005e000f3ff32000c00e000f1ff320019ddba0029
:1005f000eeff3700340e040000000000000004008d
:1006000000000000700e040000000000801f780051
:100610003200f8003400f80010002000a00188002b
:100620000020200090018800000000000000fa0077
:10063000908380000000e800908388009083800011
:100640000000e00003003a00a08380000000e80002
:10065000a083880005e8a9000080fa003400f900b2
:100660003200f9004f007800004006003600f80024
:10067000809fbe00829fbe00849fbe00869fbe00fa
:100680003200f8003400f80010002000a0018800bb
:100690000020200090018800000000000200fa0005
:1006a0000000eb0007220700004f78001e40780092
:1006b0003c21070046d0bf00e14f500025003a0022
:1006c000f0c3b3009e40780080cf50002800320075
:1006d0003a70ef00a0c3b3009e40780080cf500076
:1006e00019003a0037d0bf000040e80037f0b700eb
:1006f00037d0bf00e34f50001d003a003770ef00c5
:1007000010c0b3004133070060c0b3003f3307009f
:10071000d1002000b0042a008a3607000040eb0018
:100720003a330700a0ceb30038330700f0c4b3005b
:100730003633070040c0b300343307004670ef0083
:100740006c2107000a0037003770ef004670ef0099
:10075000070037001e407800fb4f500004003a00ad
:100760003a70ef003770ef0010c0b30046f0b700ea
:100770000168a9000080fa003400f9003200f90095
:100780004f03be004f02be004f01be004f00be002f
:100790003600f90000400600809fbe003200f800dd
:1007a0003400f80010002000a00188000020200084
:1007b00090018800000000000200fa0090708000a4
:1007c0004b00de00004f78009e00fb0040d0bf00d1
:1007d0000080fb000080680061006000004078003d
:1007e0000004e00003003200e08180000000e80027
:1007f000e08188009e00fb0040d0bf000080fb002d
:1008000000806800620060000000e0000300320029
:10081000f08180000000e800f08188001e40780030
:1008200040f0b7000268a9000080fa003400f90027
:100830003200f9004f00be00004006003600f8000c
:10084000809fbe00829fbe00849fbe00869fbe0028
:100850003200f8003400f80010002000a0018800e9
:100860000020200090018800000000000400fa0031
:1008700039d0bf000004e00021003a00108280005f
:10088000e10f50003f003600108280000000e900b8
:100890001082880045d0bf00f04f500010003a0091
:1008a0000a2007002047980008200700000f780062
:1008b0001e0078004800dd00000f78002e409000f8
:1008c0000080fb001e0f4000000028001e0f4000ab
:1008d0001e0078004500de00000f7800050037009c
:1008e000fa1f0700000f78001e0078004300dd00ab
:1008f000000f78001e007800a019070021003700c3
:10090000fd330700000f780045d0bf00f04f5000c6
:1009100011003a001e0078004400dd00000f78004e
:10092000000028001e0f40001e0078004800de0076
:1009300000407800c81f07000080fb00000f78000f
:100940001e00780000407800c31f07000080fb00f5
:10095000000f7800080037001e0078004400de0019
:10096000000f78001e00780000407800ba1f0700d2
:100970000080fb00000f7800108280000000e8007b
:10098000108288000688a9000080fa003400f9006f
:100990003200f9004f03be004f02be004f01be00ff
:1009a0004f00be003600f900004006003600f80097
:1009b000809fbe00829fbe00849fbe00869fbe00b7
:1009c000889fbe003200f8003400f80010002000bc
:1009d000a001880000202000900188000000000095
:1009e0000c00fa003bd0bf000004e00064003200bd
:1009f00035d0bf000004e00061003200e0818000db
:100a00008000eb000e0207000004be003bd0bf00d8
:100a10000080fb008000eb00090207000001be001f
:100a20000800be009c0107002007980031079800cd
:100a3000f08180008000eb00010207000004be008e
:100a400035d0bf000080fb008000eb00fc010700f8
:100a50000001be000800be008f010700400798009b
:100a60005107980038d0bf000004e00005003200b4
:100a70003bd0bf000080fb000000ea00000f7800c0
:100a8000030037003bd0bf000080fb00000f780060
:100a900002002000031224004e009000de009000af
:100aa000bb00070018c0b3002e019000be019000eb
:100ab000bb0107000000e000010035000044eb002e
:100ac0000804e0001100320036d0bf000004e0004e
:100ad0000600320035d0bf000080fb00e1ff2f0090
:100ae00000805000100798000400370035d0bf0088
:100af0000080fb000080e800100798009e00900036
:100b00001e0078002a3607001d0037000200200072
:100b1000031224004e009000de0090009b000700ae
:100b200018c0b3002e019000be0190009e01070086
:100b30000000e00001003c000044eb000804e0007d
:100b40000f00320036d0bf000004e0000500320084
:100b500035d0bf000080fb00620010001007980035
:100b60000400370035d0bf000080fb000080e900a2
:100b7000100798009e0090001e0078000c360700b9
:100b80000688a9000080fa003400f9003200f9005c
:100b90004f04be004f03be004f02be004f01be0017
:100ba0004f00be003600f900004006000040da00a9
:100bb0000000fe000a00fa0011002000b1bf9f00f3
:100bc000c0bf9f006a8057002d0907004fb89700eb
:100bd0000080fa00000006000a00fa00e20f500050
:100be00034003e0090a38100e10f5000030032006a
:100bf000e20f500011003a000c00370003222000e1
:100c00000300e00001003a000040da002002e200a8
:100c1000020035002822ef0021e2a8002342ab00a9
:100c20000d003a002342a8000b00370003232000e8
:100c30000300e00001003a000040da003002e20068
:100c4000020035003822ef0031e2a8003342ab0049
:100c500001003a003342a800820178000b003700ff
:100c60003102fb00e10f500004003a002322ab00e8
:100c7000feff3a0024118800030037003322ab0046
:100c8000feff3a00a41188008301e9000300e000a0
:100c9000f3ff3a00e10f500003003a002302ab00db
:100ca000feff32000b0037003302ab00feff3200c4
:100cb0000800370033002000b3bf9f00c0bf9f0073
:100cc000d1bf9f00e2bf9f006a805700ee08070077
:100cd0006fb99700020078000080fa00000006005b
:100ce0000a00fa0051002000b1bf9f00c0bf9f0062
:100cf0006a805700e60807005fb897000080fa0096
:100d000000000600889fbe0080047800a0a3810038
:100d10000000e00004003a000e0007000084eb0031
:100d20000000e00008003500a8a381000900e000f1
:100d30000500320009004400060007000000e00042
:100d400001003d000084eb00080078004f04be0065
:100d500000000600800078000100e00003003a0077
:100d600000002000a0a38900000005000080eb0027
:100d700002002000828f500002003e00a1a38900e3
:100d80000000eb00000006000000050003f0a200d8
:100d9000889fbe008a9fbe008c1f78006d010700ef
:100da000740133006450e1004f0032006420e10020
:100db0005200320003826c0007003b000905d0009e
:100dc0000306d000820f54000c065d0002003900bb
:100dd0000200320089017800030678008582550000
:100de00004003d000003fd008103fd008502ea00d0
:100df0008b854200840f720002003b0060001000ef
:100e0000e08018006011b8000005eb007a28e100ce
:100e10000a00390006007800c75ddd00f707b20060
:100e2000878075002d003700828171000a017800eb
:100e3000610560008180d1000080d3008502e90057
:100e4000f9ff3b00060440008784480002003b0095
:100e500060041400e0841c000988a300070032002d
:100e60008a81710082817100610164008904d1006e
:100e70000884d3008b05e800170037000978a30029
:100e800013003a000b00e000130034008b05e9006a
:100e90000804440089844c000a4474000978a300c3
:100ea0000d003a000b00e000070034008b05e9005c
:100eb0000804440089844c0001003a000b00200023
:100ec0000978a300f7ff32000001eb0002003700b1
:100ed000828171000a017800e30007000cf0a7008e
:100ee00001f0a0002c0137006420e10002003a006c
:100ef000838f6c002c0133000801be000200be008d
:100f000025013700889fbe008a9fbe008c9fbe00cf
:100f10000004be00fa0007000800be008906780041
:100f20006420e10008003900040032000160a000e4
:100f300012022000f28488005300370091fc230045
:100f4000b0fd20004e0037000006eb0009f0a100c4
:100f500003f82300020020000800be0090000700f4
:100f60000600340001f82300000020000801be0044
:100f7000490007000004be002c0020000800be004d
:100f800093e82300320a2300850007001200340092
:100f90000801be00d1fd2300703d2b007cff07003f
:100fa0000005be00b3f32300f27a26000800be005d
:100fb0000001070003f823000200200073ff070070
:100fc0000801be0072ff07000a01be0032000700e0
:100fd0000004be000c06e8000800be0001f0a100fd
:100fe00002002000039823006d0007000800be00e7
:100ff000160035000801be00ee0007000005be0027
:1010000032cd2c0043fb230061ff0700809fbe0010
:101010001269280003d52b000a00be00e500070076
:10102000620f210013ef2b0059ff07000a01be00d9
:10103000e00007004f01be00170007000801be00d6
:10104000dc0007000801be0051ff07000c00e000b3
:101050000b0032000c10a70001f0a200b2fd20002e
:1010600093fc23006260e1000400320022a920000a
:1010700063f023000c10a70063f8230044ff07006f
:101080000df0a70001f0a2004f06be004f05be0004
:101090004f04be0000000600889fbe008a9fbe006d
:1010a0008c1f7800ab000700b200330003866c0091
:1010b0006450e1002e0032006420e1003300320071
:1010c0006150e1002f0032006120e1003100320068
:1010d00085855500eb07b0000900200008042000ba
:1010e000050037000804440089844c000a003100e0
:1010f0000603430087834b000001530081815b009e
:10110000f8ff33000203be000800a00008044400fa
:1011100089844c00f6ff3900c639dd008301730075
:1011200001003200130020008904d1000884d3009c
:101130000998a300050032000800a7000300a000e2
:101140008904d1000884d3008b05e8008904d1000c
:101150000884d3000001eb000281d20042000700a6
:1011600001f0a1000cf0a70001f0a0008a003700f8
:101170006420e1008c0032000801be000200be00c5
:10118000f7ff37006120e100870032006000b800ff
:10119000f3ff37000000200001f82700f0ff3700c0
:1011a00014002000ee003700f4ff2f00ec003700a1
:1011b0000001be00520007000470a70003f0a10068
:1011c0006509b100160032000d0035006828e10005
:1011d00006003500f0ff2f00f1ff27000300e000bc
:1011e00013003b0001002800000005000000400043
:1011f000818048008502e900fcff3a0008003700c2
:10120000f88f420002003c008000eb000000050067
:101210008100d1000080d3008502e800fcff3a0085
:101220000300e00002003b0060001000e0801800b6
:10123000000006004f89de0082017800e3003700dd
:101240006011b800f10037000001eb009d000700bd
:10125000040032000200200003f8230001f0a70080
:10126000cafe0700000006008100200061805500d2
:101270000b003d000b00200061fe2f000100e1008b
:101280001d00340082817100610164008904d10075
:101290000884d3000000e800faff3a007100200043
:1012a0006100640003007000020060000900320069
:1012b00061044400e0844c000988a5000500320068
:1012c0008b05e8006808e10002003a008904d100bb
:1012d0000884d300f20f20000258e10005003d0011
:1012e000c75ddd00f907b20089807500080078004d
:1012f000000006000bf827008b00780000000500b6
:10130000c70ade00f107b200f50fb2000800320094
:10131000e1cf4200020032000170a000240005006d
:10132000810f700001003200040805004400050030
:10133000810f700002003a00140005008502e900e8
:101340000000400081c04800fcff3b000170a0008d
:10135000240005000004be00e9ff07000003be00f2
:101360000405be000200be00e5ff0700844f7500c3
:10137000000006000200be006450e10005003600d7
:101380006420e100020036000968a30001003a0071
:101390000800be000160a0004f0678004f05be00a7
:1013a0004f04be0000000600f0ff2f00f1ff2700f1
:1013b000f9ff3700889fbe008a9fbe008c1f78000f
:1013c000e4ff0700ebff330003866c006450e1008c
:1013d000240032006420e100270032006150e10067
:1013e000220032006120e100210032008b854200a2
:1013f000eb07b1000134b800003ab800080442001d
:1014000089844a00013ab8000030b8008880400062
:1014100009014a00040033000000400081804800b8
:10142000020149008b05e900c909dd008301700054
:101430000100320013002000c814de004814dd0053
:101440004709de001200b200c808de000884700000
:1014500085ff070001f0a1000cf0a70001f0a0003b
:10146000cdff37006120e100cfff32000801be0050
:101470000200be00f7ff37006150e100fcff3a00b8
:10148000c9ff37006022b800060220000000d0002b
:101490008180d2000482d2008582d2000000a000a8
:1014a0000202520083825a0003003100020242000d
:1014b00083824a000000a1000603e900f3ff3a001e
:1014c00000000600889fbe008a9fbe000003be0089
:1014d0008bff070085057800828152000200200002
:1014e0006220e10004003a00f307b1000400350077
:1014f0007718e100040035000600be001400370034
:101500006000b8000f003700f50f2000faff2f0031
:101510008502d1000a85d3008301e900fcff3b006e
:101520008184620000046500890f7400f2ff3200bc
:101530008582ea000a85ea00818462000004650071
:1015400049ff070007f0a70001f0a0000081eb00b1
:101550000200e0004f05be004f04be000000060080
:10156000889fbe008a9fbe00841f780079ff070015
:101570004f00780011003300f0ff2f00838f6c00c4
:1015800006003b00040565000a00a70008003700bc
:1015900009f0a6001000200008003700820f540058
:1015a000838f5c00030039001000200001003e0022
:1015b0000000200009f0a7000000ea004f05be006f
:1015c0004f04be000000e00000000600881f780005
:1015d000030478000300e00007003d0060001000f5
:1015e000e080180060011900e081190002003b0052
:1015f00001f02d00030037000400070008f0a700e9
:1016000001f0a0004f04780000000600889fbe0093
:101610008a9fbe0000827000040271000482710083
:10162000260032000004be000200be006011b800b7
:101630006b092000950220000182cf000a003900ca
:101640000541b1000082cf00070039000541b1001b
:101650000982cf00040039000541b1000882cf00a3
:10166000010039000541b10005425200120032006c
:101670000a003b0082817100610164008100d10099
:101680000080d3008984d3000884d3008b05e80050
:101690000442e800f7ff3a0007003700080444005e
:1016a00089844c0000004800818048008b05e900d7
:1016b0000442e900f9ff3a00ebfe07004f05be00c7
:1016c0004f04be0000000600e13c23000b00370081
:1016d000e13c23006b000700800078000080eb00f5
:1016e0000100e00004003500e13c2300a0002000e0
:1016f000020007004f80de0000000600889fbe0049
:101700008a1f78000004be00c900900069009000a4
:10171000808f50000600390009007800b8000700eb
:10172000800078000080eb000100e0001700350029
:10173000084578004900900008587800c0049800d7
:101740001900780000b8a30004003a0000a8a30024
:1017500008003200ea4f540006003a000900780001
:101760000d000700800078000080eb000100e00021
:1017700006003a0000c0200019006000020032009c
:1017800049009000e00498000a80fb004f057800b3
:101790004f04be0000000600889fbe008a1f78002c
:1017a000000478000800e0000d003a00c841230062
:1017b000700544008004eb00580078000000e00051
:1017c00004003200f4ff07000000e00001003d00cb
:1017d0008084eb008a0f5400f7ff3a0025003700a1
:1017e00000002200180060008004eb00210032009d
:1017f000a80490000f003700090151003840900004
:101800000000fb0089007800f3fc07000000e00006
:1018100007003c00280090004004980060049800f5
:10182000500c98001890a0008084eb001100370045
:101830008084440048019000828f5400eeff3900fc
:1018400028009000400498009800780002c0200012
:101850000281600001003a003800900001e8a30016
:10186000020032006004980001003700500c98001c
:101870008004eb00090078004f0578004f04be009b
:1018800000000600889fbe008a9fbe00800478008a
:10189000010478002c003700c80090006800900018
:1018a000808f5000040039000800780054000700c1
:1018b0000000e00037003500004020001800600004
:1018c00009003200a1002000090078004200070052
:1018d000800578000b00e0000300320061851400f1
:1018e0000a8545000400370009007800340007002d
:1018f000000578008005eb0048009000e8009000ab
:10190000808050008a8f500002003100010578006d
:101910008005eb000a0178008900780021000700ab
:10192000480090000a004000400498000b00e000ce
:10193000040032000800780097ff07000000e00074
:1019400014003a008a8444001904e000d2ff3a00ef
:1019500000802000180060000600320008007800b7
:101960008dff0700800078000080eb000100e000a0
:1019700009003a0001c02000988060000000eb00e0
:101980000500320048009000600498000000eb0061
:10199000010037000080eb004f05be004f04be0081
:1019a000000006008001780002003700b15978007d
:1019b0000201e9000200e000fcff3a00000006001e
:1019c00080007800010178003104e000fdff3a005a
:1019d00000005100000006000001eb00000278004a
:1019e000b041780081cf510001003a000401780035
:1019f0000304e000f9ff3a0002007800000006004e
:101a0000889fbe008a1f780000047800c8009000fc
:101a1000680190000000eb00828f50003c0039000c
:101a2000180078002200290002016000e20f510036
:101a300007003200012024000000e00001003d000a
:101a400001202000008c70000080eb003000370087
:101a50000200260002006000820f500009003a00d8
:101a600038009000808f5000060039000800780090
:101a700049ff0700800078000080eb000100e000d3
:101a800023003a001805780000c02000000065001f
:101a900018003a00a80490006002200008004000ee
:101aa000808f540013003a00002020002f0307000d
:101ab000200498000000e00005003a002904980086
:101ac000490498008904e8003904980008003700a8
:101ad0000a60a0000a0c7800400498000120200051
:101ae0008080400031049800400c9800500c980011
:101af0000c00070028009000500498003800900067
:101b00006004980000002600180c70000000eb0034
:101b10004f0578004f04be000000060040e320009f
:101b200062003700881f7800e84623001804e000b0
:101b300003003a00f9ff070020c0b300004c780012
:101b40004f04780000000600889fbe000004780063
:101b50000800780010ff07008004780000042000cf
:101b600018006000020032002800900046020700c2
:101b70000000eb0020049800384090000004e000d2
:101b8000050035000000fb000afc07000000e00033
:101b9000010032008084eb00181090000000e0008b
:101ba000080032004efc07000000e0000100320097
:101bb0008084eb0018109000330207000000eb0057
:101bc0001014980000082000180060001500320072
:101bd0000001eb006000b8000202d000e3412300e6
:101be00003024200940f140005003a000000400078
:101bf00081804800008041000008eb0006003700ab
:101c000061004000e08048000201e800e80f500059
:101c1000e08f5800f0ff3a00080078001a02070031
:101c20000e003700000c780000c0eb003044980034
:101c30006002200008004000200498004004980042
:101c400050049800400c980060049800500c9800d4
:101c50007004980076004400000c98000900780099
:101c60004f04be0000000600881f78000004eb004f
:101c70006140b800e2ff2f00f3ff2f0018050700b6
:101c8000c242230080004100110078000000e00003
:101c900001003200acff07000804e800e80f540020
:101ca000f3ff3a004f047800000006000100200016
:101cb0000100e00009003200010080000100e000a6
:101cc000060032008100e900010088008100d00098
:101cd000020080008280400080087800000006003a
:101ce000889fbe000004780001007800820478001c
:101cf0008801780009017800110020001402070013
:101d0000890f5000010032000004eb000800780049
:101d10004f04be00000006000000fa00e8815700f2
:101d20004fb99700e13c230000e7200002000700c4
:101d30000080fa00000006006200fa00889fbe00e2
:101d40008a1f78000005780081047800020478007a
:101d50008300780080f92f000f004000c6040700c0
:101d60009a979f00a9979f000000eb00b09f9f00eb
:101d70001885fb008a04fb000a05ea004f55de00c7
:101d800050022000808f54000d003200e10f5500fa
:101d90000b003a000a017800880078002f90970025
:101da0009f91970003000100a0979f000000e000b2
:101db0008e0032003f9897000000e800b09f9f001f
:101dc0000a04440050022000808f540004003200b6
:101dd0000900e000e6ff3a003f98970084003700d2
:101de0000000eb00909f9f00809f9f00f0979f0056
:101df000e0979f00d0979f00c0979f000700370093
:101e000041462300010050000000400081452300ae
:101e1000808040005f98970011007000d09f9f0065
:101e20008804780009047800384578008a00fb00af
:101e300040462300810207000000e000f0ff3a0066
:101e4000a1c2b300814f55000e003a00cf88970021
:101e50000180e900c08f9f0010007800c09f9f00a4
:101e60000000e00005003d000000ea00c09f9f0068
:101e70005f9897000020a000d09f9f000904e80011
:101e80000f003700c09f9f000000eb0005003700e7
:101e9000f2ff2700820f500002003200ea00b90072
:101ea000008040000904780088047800b900fb0035
:101eb0000103b100e98f5000f5ff3600c09f9f007d
:101ec000e0c2b300984f1000020032000080eb0027
:101ed00019003700a0c2b300d84f100007003a0025
:101ee000cf8897000180e900c08f9f001000780024
:101ef000a09f9f000804e800100037000000eb00de
:101f0000a09f9f008800780005003700f3ff27009e
:101f1000830f500002003200ea00b90000004100c7
:101f200001047800880078003101fb000203b10051
:101f3000e90f5100f5ff3600a09f9f0098447800fc
:101f40008900fb00004523003c0207000000e00080
:101f5000020032000804e800010037008044eb0072
:101f6000c97f9f0080c6b30080cf540004003a00b0
:101f700098cf14000a003a0066405000060037006f
:101f8000c0c6b30080cf540005003a0098cf1400bb
:101f900003003a0065404000c07f9f000804e8004d
:101fa0001801fb00e3fb2f008f81410081f92f0016
:101fb0008f804000a0f92f000f00400010000700a4
:101fc0000000e00009003a00e1fb2f008f80400094
:101fd000a0f92f000f0040006b0307000000e00095
:101fe000020035000804e80061ff37000080eb00c4
:101ff0004f0578004f04be000080fa000000060084
:10200000889fbe008a9fbe00e4c6b300844f510083
:10201000ce00320010003c006b425200844f510051
:102020001800320005003c0054c2b300844f510038
:102030000601320084c5b3000f00370044c6b30068
:10204000844f51001500320065424200844f510018
:1020500001013a001100370004c7b300844f51005a
:10206000ed0032005f00350065424200844f5100b0
:102070005c00320063424200844f5100f6003a0097
:10208000580037001181e90082087800f0009000c4
:102090008181410092497800f5003700206290006c
:1020a000c5c6b300854f520008003a00910278007f
:1020b0006482520084087800940290001402780030
:1020c0004fabde00860378001600370015c7b3005b
:1020d000854f520003003a00110478006802540052
:1020e00005003700a5c6b300854f520008003a002e
:1020f000910478006882540084087800940290006b
:1021000024039000b4039000140278000500370007
:102110001182e9008408780014027800cfa2de0062
:10212000612bb9000498be000690be00a06090002c
:1021300088c6b30088cf50000d00320028c6b30017
:1021400088cf500004003a000402fb00cfa2de005a
:10215000612bb9000800370048c7b30088cf500092
:10216000030032006644440088cf500004003a0067
:10217000cfa2de00612bb9000498be000690be001d
:10218000100278009002900020039000b0039000ad
:10219000f0009000e00f5200e08f5a00e00f5b006b
:1021a000e08f5b0003003d0001824100d5c2b30017
:1021b0000a003700001290000418a3000300320048
:1021c00001824100b5c2b300040037000408a30037
:1021d000590032000182410005c2b300054a78006f
:1021e0005300370020629000c5c6b300854f5200ef
:1021f00009003a001105780064025500840878004f
:1022000014047800940490006055b8000802be00e1
:102210000a03be001600370015c7b300854f5200f1
:1022200003003a00910478006882540005003700ea
:10223000a5c6b300854f520008003a00110578008a
:1022400068025500840878009402900024039000ee
:10225000b403900014027800050037001182e900f1
:1022600084087800140278008002eb006033b80024
:102270000498be000690be00a060900088c6b3001f
:1022800088cf50000d00320028c6b30088cf500020
:1022900004003a000482fb008002eb006033b800c7
:1022a0000800370048c7b30088cf50000300320051
:1022b0006644440088cf500004003a008002eb00de
:1022c0006033b8000498be000690be0080109000f5
:1022d0000138a3001800320010027800900290002c
:1022e00020039000b0039000e00f5200e08f5a00ee
:1022f000e00f5b00e08f5b000f00320081c7b3008e
:10230000814f51000300320081c5b300814f51005d
:1023100009003a00f00090000182410005c3b300bb
:10232000054a78008100e80001824100024a7800f5
:102330008100e80071009800f00090008181410068
:1023400063009800824078003e003700a061900052
:10235000c4c6b3001181e90084cf510022003200cd
:102360000a003c006442520084cf51002500320034
:1023700004c2e80084cf51001300320068425200ca
:1023800084cf51001e003a000a00370044c7b30052
:1023900084cf51001b0032006642420084cf5100be
:1023a000180032006942520084cf510014003a00f4
:1023b00005003700820878009200780040589000ad
:1023c000804878002c00370082087800920078005e
:1023d000600a9000cfa2de00612bb9008498be0095
:1023e0008690be00240037008208780092007800b2
:1023f00060099000cf91de008288be001e00370089
:102400001181e9008208780092007800600890004d
:1024100080087800180037001181e90082087800f0
:1024200012027800cfa2de00612bb9000498be0032
:102430000690be00f000900081814100630098008a
:1024400081c7b300130107000b003700f0009000b4
:102450008181410005003700f0009000818141003a
:102460000204e00001003a0052c2b3008249780041
:102470008100e800710098000000eb004f05be00ed
:102480004f04be00000006000000e0002f003200f4
:10249000c0017800e38f51002c0036000308a30030
:1024a0002a003a0061a381000100e000020032002e
:1024b000810f5000040031001100980060a38900d2
:1024c0001600370082007800110190000200e00041
:1024d00002003200800f5100faff3900110278002b
:1024e00084824000850f500018003900808f520010
:1024f00003003a008308420001007800070037001b
:102500000200e0000300320083014000830f51000d
:102510000e00390012009800900098009000900082
:102520000100e0000900320010014000828f5000dd
:1025300006003a00a24623000009eb0010017800d3
:102540001108410091009000110098000000060061
:10255000889fbe008a9fbe008c9fbe008e1f7800a1
:1025600000067800010478000200780083047800f7
:102570008881b900020778000e00e00042003200b6
:102580000800e000410032008e057800c90090008c
:1025900069009000808f5000040039000900780025
:1025a00017fd07000000e000290035000040200072
:1025b000190060000a0032000b017800a100200021
:1025c0000c00780093000700800678000d00e00002
:1025d00006003200610516000a8546000400370037
:1025e0000b0578008006eb00010037000b05780032
:1025f00049009000e9009000808050008a8f5000d0
:1026000002003100010578008006eb000a01780025
:102610008c007800e3fc07008a8555004900900093
:102620000a004000c00498000d00e00004003200e1
:102630000900780058fc07000000e00004003a00a0
:102640000b00e000020032000a064600cfff370010
:1026500000802000190060000200320009007800ac
:102660004dfc070000c0200019006000020032008d
:1026700049009000e00498008b0557001100090004
:102680008885d800010037000000eb004f07780074
:102690004f06be004f05be004f04be0000000600fe
:1026a000889fbe000004780051a381000100e00073
:1026b00002003200010078000d00370061a38100a4
:1026c000c046230004003700910f54002500360057
:1026d0000180e800910090000100e000faff3a005c
:1026e00010003700920f54001e0036000280e800f0
:1026f000100178000200e000faff3a0011017800b2
:1027000061a38100c046230004003700910f5400ec
:10271000140036000180e80091009000828f500084
:10272000faff3a0089a38100888f5400010031002c
:1027300088047800090078004c0007000000e000e1
:1027400004003a00888f5400050032008904d1004b
:10275000f5ff3700091878004bff0700d2ff37005c
:102760000000eb004f04be0000000600881f780048
:10277000630440000800a1008000eb00800f5400bb
:1027800021003600e30f540001003e004800200005
:1027900008007800c2ff07008000eb000000e000a6
:1027a0001900320090007800910178006481510096
:1027b000880f5100030031001101900002087800d9
:1027c000070037000881400002087800910190005e
:1027d000130198001001780011091400880878008e
:1027e000100178000000eb000200e000040032005d
:1027f000920190000300e000010032000280e80036
:1028000050a389008180e800010078004f0478001f
:102810000000060003003700b0cf100005003200b2
:102820000201e900800178000200e000faff3a00ae
:1028300000000500030078000000060002003700d9
:102840000304e00006003200000178000200780076
:10285000b041780081cf5100f9ff3a000100370004
:102860000001eb0002007800000006008000780004
:102870000000eb000100e0000500340001007800da
:1028800020f90700e10f400001003a000000eb00d2
:1028900000000600fc874700889fbe008a9fbe009c
:1028a0008c9fbe008e1f78000006780080c5b300a4
:1028b00080cf50000a0032007740400080cf5000a7
:1028c0000a0032006940400080cf50000b00320007
:1028d000f043230080bf9f00ae0020000a003700b5
:1028e000e242230082bf9f0006003700f34323002b
:1028f00083bf9f008e00200003003700f4432300b5
:1029000084bf9f000e0120001c0278009c029000f2
:102910002c039000bc0390000605be000404be001a
:1029200040c6b30080cf5000030032006540400035
:1029300080cf50000b003a00e00f5200e08f5a00a9
:10294000e00f5b00e08f5b0006003d006000b80018
:102950006011b80004045000858458000605590031
:1029600087855900e80f570004003200400020001e
:10297000f00f57003c003a00010037003000200003
:10298000e00f5400e08f5c00e00f5d00e08f5d0021
:1029900004003a00dc0890008d0120000100e000f6
:1029a000070032008e00e900888060008fba97002f
:1029b0008180420091407800f1ef9f007d0120006e
:1029c000800078008100e900050033008b05d1000c
:1029d0000a85d3008984d3000884d300f9ff370027
:1029e000089ebe000a96be00130037008d06e9005f
:1029f0008e00e900848060000fb9970081004100db
:102a00001141780083fd2f008d81410082f779000c
:102a1000800178008301e900050033008783d1003d
:102a20000683d3008582d3000482d300f9ff3700e8
:102a3000049ebe000696be001c0278009c02900018
:102a40002c039000bc039000e00f5200e08f5a006e
:102a5000e00f5b00e08f5b00930034000d00e000ae
:102a6000e2ff3c00900037002c60900081c6b3006c
:102a7000814f50000b00320006003c000004e000d3
:102a800008003200e6c05000814f500052003a006a
:102a900004003700c1c6b300814f50004e003a0019
:102aa000230037000800e00004003a005c089000b2
:102ab0008d0120000000e000070032001100090035
:102ac0000e84d8000fba9700010042001040780031
:102ad000f0ef9f007d012000110009000e84d80056
:102ae0000b003700110009000e04d8008d06e90024
:102af0008e81b900020454008fb89700088440000a
:102b00009841780082fd2f000d0141008377790004
:102b1000000478000800e000020032000d00e00030
:102b2000f0ff3c00cfc4de00614db9002700370044
:102b3000e00f5400e08f5c0004003a005c08900055
:102b40008d0120000000e000080032006171b90032
:102b50000800be005f0107000fba97008000420026
:102b600091407800f1ef9f007d0120006171b90074
:102b70000800be0043fa07000c0037006171b9007d
:102b80000800be00440107008d06e90080f1b9008d
:102b9000020454008fba97000884420098417800dc
:102ba00082fd2f000d014100837779000004be00f3
:102bb000e00f5000e08f5800020032000d00e000ee
:102bc000eeff3c004fcdde008a057800089ebe0077
:102bd0000a96be0034003700e00f5400e08f5c001e
:102be000e00f5d00e08f5d0004003a005c0890009b
:102bf0008d0120000000e0000a0032006172b9007f
:102c0000612bb9000800be000a01be00dc0107000c
:102c10000fba97008000420091407800f1ef9f00ca
:102c20007d0120006172b900612bb9000800be006f
:102c30000a01be00cb0107000e0037006172b90027
:102c4000612bb9000800be000a01be00d0010700d8
:102c50008d06e90080f2b900040454008fba970091
:102c6000088442009842780084fd2f000d02420043
:102c700085777a00009ebe000296be001c04780094
:102c80009c0490002c059000bc059000e00f5400bf
:102c9000e08f5c00e00f5d00e08f5d00020034001b
:102ca0000d00e000e5ff3c00e80f570010003a007f
:102cb0000c1090000038a3000d003200f78f560072
:102cc00006003e0080fd2f000d004000ef40780020
:102cd00000c3b30080cf50000500320002c3b30030
:102ce00071fd2f008d8040008d06e90082f778008d
:102cf00078811600120e98006c00900083fd2f0062
:102d00008f8141008d80410026fb07001c08900048
:102d1000dc089000810f500006003d00008050004c
:102d2000000e98000c1090000040a10000169800c2
:102d30000f0037000100e0000d003d008c109000f6
:102d4000f4806000f08f500009003a007c09900088
:102d5000fc009000810051000c099000828050001e
:102d6000008050004240a90001003400000e98008d
:102d70004f0778004f06be004f05be004f04be004f
:102d8000cf01b100000006000400fa00889fbe00d9
:102d90008a9fbe008c1f780000047800010678002e
:102da000f80d90007800900080855500080890008c
:102db00080855500180890008085550028089000ef
:102dc000808555003808900080855500480890009f
:102dd000808555000002220090bf9f000003230061
:102de000a0bf9f00081090000028a30015003a0023
:102df0000b00e000130034000b0578008a04780013
:102e0000e20f55000100360029002000c8019000a3
:102e100009017800ee80570058009000030001007f
:102e2000500498000000e0008c0032006808900018
:102e300009004000600c9800090555004240a900b7
:102e4000eeff3c00780190000200e0000c0034002e
:102e5000c80190008c007800580090000300010029
:102e6000500498008080eb000000e0007c003200fd
:102e7000e80890007800900000804000600c980006
:102e8000880c90000900e00011003400090578006a
:102e9000e28f5400010036002a002000c801900093
:102ea0000a017800ec8057005800900003000100f0
:102eb000500498000000e0006800320068089000ac
:102ec0000a004000600c98008a845400edff37002f
:102ed000180990000200e0000c003400c8019000c6
:102ee000e800900058009000030001005004980092
:102ef0008080eb000000e00059003200e8089000fc
:102f00001808900000804000600c9800a80c900009
:102f10000900e0001100340009057800e28f540038
:102f2000010036002a002000c80190000a01780044
:102f3000ec805700580090000300010050049800f6
:102f40000000e00045003200680890000a004000e0
:102f5000600c98008a845400edff37003809900017
:102f60000200e0000e003400e80090001808900015
:102f700080804000c80190005800900003000100cc
:102f8000500498008080eb000000e0003400320024
:102f9000e80890003808900000804000600c98001d
:102fa000c80c90000900e000110034000905780009
:102fb000e28f5400010036002a002000c801900072
:102fc0000a017800ec8057005800900003000100cf
:102fd000500498000000e0002000320068089000d3
:102fe0000a004000600c98008a845400edff37000e
:102ff000081090008000eb000028a30018003200a9
:103000000b00e000160034008b04780009057800fe
:10301000e28f5400010036002a002000c801900011
:103020000a017800ee80570058009000030001006c
:10303000500498000000e00008003200680890008a
:103040000a004000600c98008a8454004240a900a5
:10305000eeff3c008000eb00010037008080eb00b9
:10306000010078004f0678004f05be004f04be00f7
:103070000080fa0000000600010878000000060049
:1030800000c0da000000060000c0da000000060000
:1030900000c0da0000000600839f68000100e00025
:1030a00002003d0060001000e08018000300e00016
:1030b00002003d0060011100e0811900f1f80700f5
:1030c0004f00e00002003b0060001000e0801800ac
:1030d00000000600ebf807000400be000000060038
:1030e000020ab900001bb9000200b80081004200ca
:1030f0008100430000000600889fbe008a9fbe003a
:1031000030044200b0844a0030054b0090854b00eb
:103110006000b1000898be000a90be000440e100c3
:1031200005c8e10006d0e10007d8e1000200310047
:10313000680040001008e8004f05be004f04be00c4
:1031400000000600889fbe008a9fbe001004780021
:103150009004900020059000b005900004185400e1
:1031600005985c0006185d0007985d0011002000be
:103170000440e10005c8e10006d0e10007d8e10005
:10318000010039008000eb00108810004f05be00e0
:103190004f04be00000006001200fa00889fbe0027
:1031a0008a9fbe008c9fbe00e0b79f00f1b79f00d2
:1031b00082bf9f0093bf9f000605be000404be00af
:1031c0000000eb00d0b79f00c0b79f00b0b79f00d2
:1031d000a0b79f0090b79f00000678005fb19700ee
:1031e000cfb09700820141003fb097000200e0009d
:1031f00004003d00370007007e805700beff070037
:1032000003003700330007007e805700cdff070022
:10321000dfb697000d00e0000c0035006fb297009c
:10322000ffb297000fbb97009fbb970010002000d4
:10323000010020006011b80000027200818272005b
:1032400002037300838373001b0007000c06e80071
:1032500001042000810f5600e0ff3a000d00e0005d
:1032600004003d000802be000a03be007e80570035
:10327000a1ff07005fa897000000e00005003a00ea
:103280001fb29700afb297003fb39700cfb397003c
:10329000090007006fb09700ffb097000fb99700c3
:1032a0009fb997004f06be004f05be004f04be00f9
:1032b0000080fa0000000600010007000000060080
:1032c000a4b79f00b5b79f00c6b79f00d7b79f00b0
:1032d000000006004f09de0082817100b3b79f0035
:1032e0004f01de008180400082807000a1b79f0006
:1032f0008fb097004f09de00000040000200700010
:1033000090b79f007fa897004f01de0081804000aa
:103310008280700081b79f000d0007004f3ade00e9
:103320000000400004007000f0af9f00080007009c
:103330000402420085824a0006034b0087834b004b
:10334000dfff07000802be000a03be0000000600ff
:103350002fb29700bfb297004fb39700dfb397002b
:1033600000000600881f780018002000881f7800e1
:1033700089ff07008f87e9004f04780000000600ee
:10338000801feb0084ff07008f87e9000000060024
:10339000889fbe008a9fbe00e00f5000e08f58005b
:1033a000e00f5900e08f59000c003d006044b80068
:1033b0006055b8000000540081805c0002015d008f
:1033c00083815d00180020001500070008003d0003
:1033d000180007000004eb00050037000004eb00b4
:1033e0000f00070002003d00120007001800200037
:1033f000dcff07000800e000060032006022b80091
:103400006033b8000000520081805a0002015b0066
:1034100083815b004f05be004f04be000000060024
:10342000e00f5200e08f5a00e00f5b00e08f5b007e
:10343000000006006044b8006055b8000402540063
:1034400085825c0006035d0087835d000000060046
:10345000889fbe008a9fbe008c1f7800e00f50003e
:10346000e08f5800e00f5900e08f59000d003d003b
:103470006044b8006055b8000000540081805c00d2
:1034800002015d0083815d001c0020000820e10036
:1034900009a8e1000ab0e1000bb8e1000d003d0011
:1034a000080037000006eb00e00f5200e08f5a00e2
:1034b000e00f5b00e08f5b0006003d006044b80059
:1034c0006055b8000402540085825c0006035d006c
:1034d00087835d00aaff07000c00e00006003200b1
:1034e0006022b8006033b8000000520081805a00aa
:1034f00002015b0083815b004f0678004f05be0030
:083500004f04be0000000600ac
:020000040000fa
:10350800506c0000656100007365000020700000c9
:1035180075740000206d000065200000696e0000d1
:103528000074000068650000206d0000617a0000ea
:1035380065200000616e00006420000061660000e4
:103548007465000072000000707500007368000068
:10355800696e0000672000006c650000667400005a
:103568002062000075740000746f00006e00000097
:103578007765000020770000696c00006c2000006f
:103588007374000061720000740000000a500000ab
:103598006c65000061730000652000007075000014
:1035a800742000006d650000206900006e20000096
:1035b80074680000652000006d6100007a650000f5
:1035c800206100006e640000206100006674000045
:1035d80065720000207000007573000068690000c3
:1035e8006e670000206c0000656600007420000013
:1035f80062750000747400006f6e00002077000090
:1036080065200000776900006c6c000020730000e2
:103618007461000072740000004500006e630000d1
:103628006f7500006e74000065720000656400002c
:10363800006e0000657300007465000064200000df
:103648006172000065610000730000004d610000b8
:103658007a65000020770000696c00006c2000008b
:10366800626500002064000069730000706c00004f
:10367800612d0000007900006564000020760000dc
:1036880069610000204200006c750000657400004c
:103698006f6f000074680000004500006e63000052
:1036a8006f7500006e7400006572000065640000ac
:1036b80020250000642000006e650000737400007f
:1036c80065640000206100007265000061730000fd
:1036d8002e0a00004f6e0000206d0000617000008f
:1036e80020620000656c00006f7700003a0a000055
:1036f800312000002d200000574100004c4c0000f4
:103708000a300000202d0000204e00004f2000004d
:10371800574100004c4c00000a380000202d0000e2
:10372800204e000045530000540a00000025000008
:103738006400000049740000207700006f720000e8
:103748006b730000206100006e64000020770000a9
:10375800686f00006c650000006d0000617a000071
:103768006520000069730000206500007870000083
:103778006c6f000072650000642e000000540000a9
:1037880068650000204500006e6400002e000000ff
:1037980049740000207700006f7200006b7300000e
:1037a800206100006e64000020770000686f000050
:1037b8006c650000206d0000617a00006520000043
:1037c8006973000020650000787000006c6f0000cd
:1037d80072650000642e00000a540000686500004d
:1037e800204500006e6400002e000000202000002c
:1037f80020200000202000002323000020200000bb
:1038080020230000232300002323000000200000c1
:103818002020000020200000232300002320000097
:103828002023000023200000202000002323000084
:10383800002000002020000020200000202300009d
:103848002320000020230000232000002020000067
:10385800232300000020000020200000202000007a
:10386800232300002323000020200000232300003e
:103878002323000023000000313000000020000056
:103888002020000020200000202000002020000030
:103898002323000023230000230000002020000031
:1038a800202000002020000020200000232300000a
:1038b800202000002023000023000000202000001a
:1038c80020200000202000002020000020230000ed
:1038d80023230000232300002300000020200000f1
:1038e80020200000202000002020000020200000d0
:1038f80020200000202300002300000039000000e1
:1039080038000000202000002020000020200000b7
:10391800202000002323000023230000232300008d
:1039280023000000202000002020000020200000ac
:103938002020000020200000202000002323000079
:10394800002000002020000020200000202000008f
:103958002020000020200000232300000020000079
:10396800202000002020000020200000202000004f
:103978002023000023000000370000002020000062
:103988002020000020200000202000002323000029
:10399800002000002020000020200000202000003f
:1039a800202300002323000023230000230000001d
:1039b8003600000035000000202000002020000014
:1039c80020200000202000002020000023230000e9
:1039d80023230000002000002020000020200000f9
:1039e80020200000202000002323000020230000c6
:1039f80023000000202000002020000020200000dc
:103a080020200000232300002020000023230000a2
:103a180000340000002000002020000020200000ca
:103a28002020000020200000202000002323000088
:103a380023000000330000002020000020200000a8
:103a48002020000020200000202300002323000065
:103a5800003200000020000020200000202000008c
:103a68002020000020200000232300002323000042
:103a78000031000000560000616c00007565000010
:103a880073200000666f0000722000004952000099
:103a980020340000206100006e640000204c00000b
:103aa800696700006874000020530000656e00001c
:103ab800736f000072200000696e000069740000d6
:103ac800696100006c6900007a650000642e0000de
:103ad8000a5300007461000072740000696e0000ef
:103ae80067210000004900006e6900007469000049
:103af800616c0000697a0000696e000067200000b0
:103b0800706f0000696e000074000000746f0000a0
:103b18002073000074610000727400000049000006
:103b28006e69000074690000616c0000697a000029
:103b3800696e000067200000706f0000696e000069
:103b480074200000746f000020730000746100008e
:103b58007274000000450000787000006c6f00006f
:103b6800726900006e67000020540000686500005c
:103b7800204d0000617a000065210000005000001f
:103b88006c6500006173000065200000636f000031
:103b98006e6e000065630000742000006d65000013
:103ba800007700006974000068200000796f000049
:103bb80075720000206200006c75000065740000da
:103bc8006f6f0000746800000064000065760000f4
:103bd8006963000065210000203a000044000000ed
:103be800000000000000000000000000065f000068
:103bf800060000000703000000070000032400007f
:103c08007e2400007e240000242b00006a1200009d
:103c180000630000130800006463000036490000d8
:103c280056200000500000000703000000000000bc
:103c3800003e00004100000000000000413e00007e
:103c480000000000083e00001c3e000008080000bc
:103c5800083e00000808000000e0000060000000c6
:103c680000080000080800000808000000600000c4
:103c7800600000000020000010080000040200009e
:103c88003e510000494500003e000000427f000010
:103c9800400000006251000049490000462200002f
:103ca800494900004936000018140000127f00003e
:103cb8001027000045450000453900003c4a000037
:103cc80049490000300100007109000005030000a7
:103cd80036490000494900003606000049490000fd
:103ce800291e0000006c00006c00000000000000ad
:103cf800ec6c0000000000000814000022410000e5
:103d080000240000242400002424000000410000b6
:103d180022140000080200000159000009060000f2
:103d28003e4100005d5500001e7e000009090000ac
:103d3800097e00007f49000049490000363e000026
:103d480041410000412200007f4100004141000044
:103d58003e7f000049490000494100007f090000fa
:103d680009090000013e000041490000497a0000ad
:103d78007f080000080800007f000000417f000065
:103d88004100000030400000404000003f7f00003c
:103d980008140000224100007f400000404000005d
:103da800407f000002040000027f00007f02000044
:103db800040800007f3e000041410000413e000031
:103dc8007f09000009090000063e0000415100007b
:103dd800215e00007f090000091900006626000026
:103de8004949000049320000010100007f0100003c
:103df800013f000040400000403f00001f2000003d
:103e0800402000001f3f0000403c0000403f0000f1
:103e18006314000008140000630700000870000025
:103e28000807000071490000454300000000000039
:103e38007f4100004100000002040000081000005b
:103e480020000000414100007f0000000402000043
:103e580001020000048000008080000080800000d3
:103e68000003000007000000002000005454000078
:103e7800547800007f4400004444000038380000b3
:103e88004444000044280000384400004444000032
:103e98007f3800005454000054180000087e0000c9
:103ea8000909000000180000a4a40000a47c000078
:103eb8007f0400000478000000000000007d00007e
:103ec8000000000040800000847d0000007f0000aa
:103ed8001028000044000000000000007f4000009f
:103ee800007c000004180000047800007c04000036
:103ef8000478000000380000444400004438000002
:103f0800fc440000444400003838000044440000e9
:103f180044fc000044780000440400000808000045
:103f28005454000054200000043e000044240000c3
:103f3800003c0000402000007c0000001c20000025
:103f4800402000001c3c000060300000603c000085
:103f58006c100000106c0000009c0000a0600000c5
:103f68003c00000064540000544c000000080000ad
:103f78003e41000041000000000000007f000000fa
:103f880000000000414100003e080000020100005e
:103f98000201000000310000333a0000353800000b
:103fa8003a35000036000000313200002f300000a2
:103fb800372f000031370000002100004241000087
:103fc80054540000204c00004f570000210000000e
:103fd800506c00006561000073650000205200000d
:103fe80065630000686100007267000065000000fa
:103ff8004368000061720000676500003a20000015
:104008002000000042610000747400006572000026
:10401800793a000020000000252000002000000060
:10402800004600006f7200006d7500006c610000b2
:10403800204100006c6c0000436f000064650000c4
:104048000057000061690000746900006e67000095
:10405800204600006f7200002053000077690000be
:104068007463000068000000202000002020000089
:104078002020000020200000202000002020000038
:104088002020000020200000202000000046000022
:1040980041200000436f00006e6e00006563000061
:0840a8007465000064000000d3
:020000040000fa
:1040b0000600fa00000f7800110798002207980008
:1040c0001e007800900078001e0090000080ea003a
:1040d000808060002e0190001e00900000006100b2
:1040e000810070001e007800010878000080fa004e
:1040f000000006000800fa00000f78001107980081
:1041000022079800330798001e0090009000780066
:104110002e0090000080ea00808060001e00900069
:10412000010878001e007800900078002e009000b2
:104130000080ea00808060003e0190002e00900028
:1041400000006100810070001e0078000108780006
:104150000080fa00000006000600fa00000f780058
:1041600011079800424798001e00780090007800e0
:104170001e009000808060004e4090000080fb0098
:104180000008de000080fa00000006000800fa00c7
:10419000000f7800110798002207980063479800e5
:1041a0001e009000900078002e00900081007000aa
:1041b0001e009000010878001e0078009000780032
:1041c0002e009000808060006e4090000080fb0018
:1041d0000008de000080fa00000006000600fa0079
:1041e000404798000040eb00004f78000d0037007a
:1041f0000000eb00100798000500370010c0b30066
:104200000e0007001e0090000000e8001007980054
:104210009e009000603e2000808f5000f7ff340029
:104220001e4fe8004e4090009e40780080cf500026
:10423000efff35000080fa00000006000400fa00dd
:10424000204798000040eb00004f78000500370041
:104250000060fe000017210011002000cd3407008f
:104260001e4fe8002e4090009e40780080cf500006
:10427000f7ff35000080fa00000006000200fa0097
:10428000000f780005003700a05b2400010020002b
:10429000c034070011f02f001e8f4000f00f2000e7
:1042a0009e007800808f5000f7ff3e001e007800cf
:1042b0000000e0001b0032001e0078006101b80021
:1042c000f00f2000010020000202780003017800b6
:1042d00080017800010078000302620000006100a4
:1042e0006101b800c011dd00020020000200be0024
:1042f0006121b80002007000838070006204200019
:104300008289b900e002b90084017800030141000c
:10431000630420000300b80001014100820078001e
:104320009c3407000080fa00000006000200fa003a
:10433000000f78000500370000e92500011120007a
:104340009434070011f02f001e8f4000f00f200062
:104350009e007800808f5000f7ff3e001e0078001e
:104360000000e0001b0032001e0078006101b80070
:10437000f00f200001002000020278000301780005
:1043800080017800010078000302620000006100f3
:104390006101b800c011dd00020020000200be0073
:1043a0006121b800020070008380700002172100b4
:1043b0008289b900e102b90084017800030141005b
:1043c000031721000300b8000101410082007800ba
:1043d000703407000080fa00000006000200fa00b6
:1043e000000f78000400370000c0eb0093ff0700c7
:1043f00011f02f001e8f4000f00f20009e0078006b
:10440000808f5000f8ff3e001e0078000000e000a2
:10441000030032001e0078000040780087ff07008c
:104420000080fa00000006000200fa00000f780089
:104430000500370000282600117f220055340700b0
:1044400011f02f001e8f4000f00f20009e0078001a
:10445000808f5000f7ff3e001e0078000000e00053
:104460001c0032001e0078006101b800f00f20002f
:10447000010020000202780003017800800178002a
:104480000100780003026200000061006101b800d1
:10449000c011dd00020020000200be006121b80052
:1044a000020070008380700002d821008289b90068
:1044b000c34220008382b9008401780003014100d7
:1044c00003d821000300b8000101410082007800f8
:1044d000303407000080fa00000006000200fa00f5
:1044e000000f78000400370000c0eb003bff07001e
:1044f00011f02f001e8f4000f00f20009e0078006a
:10450000808f5000f8ff3e001e0078000000e000a1
:10451000030032001e007800004078002fff0700e3
:104520000080fa00000006000600fa00000f780084
:104530001107980022079800ae0090001e0090001e
:10454000808f5000040031002e0090001e004000bb
:1045500010407800010037000040eb000080fa00b6
:10456000000006000600fa001007980021079800d6
:104570000000eb00000f7800060037001e009000de
:104580001e004000104078000004e00005003200ea
:104590001e0fe8002e0090009e007800808f5000d3
:1045a000f6ff39001e0078000080fa0000000600c7
:1045b0000e00fa00100798002107980032079800b3
:1045c0004307980054079800650798006e00900014
:1045d0000000e00002003a005e009000400037005a
:1045e0000000eb00000f7800060037001e0090006e
:1045f0001e004000104078000004e000050032007a
:104600001e0fe8002e0090009e007800808f500062
:10461000f6ff39003e0090009e0f50000400390064
:104620005e0090008040eb00014878002b003700ce
:10463000be0090004e009000008040009e0f500091
:10464000030039003e0090001e0010004007980053
:10465000ce0090006e009000808f50000200360067
:10466000ee009000410798009e0090003e009000f0
:1046700000804000100798000000eb00000f780059
:104680000b0037001e009000904078005e00900004
:10469000014878005e0090000000e8005007980094
:1046a0001e0090000000e800100798001e0fe800b0
:1046b0004e0090009e007800808f5000f1ff39007e
:1046c0006e0090009e007800808f50000300310043
:1046d0005e0090008040eb00014878005e00900092
:1046e0000080fa00000006000c00fa001007980095
:1046f0002107980032079800430798005407980054
:104700005e0090000000e00002003a004e009000c1
:10471000320037000000eb00000f78000600370081
:104720001e0090001e004000104078000004e000d1
:10473000050032001e0fe8002e0090009e00780059
:10474000808f5000f6ff39003e0090009e0f500011
:10475000020036009e00780031079800be009000ed
:104760005e009000808f500002003600de00900056
:10477000310798000000eb00000f78000b003700b5
:104780001e009000904078004e0090000148780094
:104790004e0090000000e800400798001e009000c6
:1047a0000000e800100798001e0fe8003e0090008f
:1047b0009e007800808f5000f1ff39005e0090006d
:1047c0009e007800808f5000030031004e00900062
:1047d0008040eb00014878004e0090000080fa0015
:1047e000000006000e00fa0020079800310798002c
:1047f0004207980053079800640798006e009000e5
:104800000000e00002003a005e009000390037002e
:104810000000eb00000f7800060037002e0090002b
:104820001e004000104078000004e0000500320047
:104830001e0fe8003e0090009e007800808f500020
:10484000f6ff39004e0090009e0f50000200360027
:104850009e007800410798004e0090001e00100056
:1048600010079800ce0090006e009000808f5000de
:1048700002003600ee00900041079800ae00900064
:104880001e00900000804000200798000000eb0010
:10489000000f78000b0037002e0090009040780049
:1048a0005e009000014878005e0090000000e80083
:1048b000500798002e0090000000e80020079800a4
:1048c0001e0fe8004e0090009e007800808f500080
:1048d000f1ff39006e0090009e007800808f50003c
:1048e000030031005e0090008040eb00014878003a
:1048f0005e0090000080fa00000006000e00fa0042
:10490000400798005107980062079800ce00900079
:104910001107980000712200200798000000eb00aa
:10492000300798006e0090000000e00002003a009e
:104930000040eb004b0037001e0090000000e0003c
:1049400009003d005e009000d1c2b300014878002c
:104950003e0090000000e800300798001e00900024
:104960000000ea00100798000040eb00004f7800bc
:104970001e0090000000e00028003a0010c0b300c4
:10498000004f780010002000200798002300370017
:104990009e0090002e009000808f50000300310098
:1049a0001e4078000004e000170032009e009000d6
:1049b0002e00900000017800110009008280d800cc
:1049c000004f7800de0090003e0090000080400024
:1049d00002c3b3009e404100014878003e009000b1
:1049e0000000e800300798009e0090001e81fb0048
:1049f0002e0090008090b9000080500010079800b1
:104a000010c0b300004f7800ae009000d0cc2c0056
:104a10000008b8004308de0020079800be009000a0
:104a20006e009000808f5000030031002e00900037
:104a30000000e000d6ff3a00be0090006e0090003b
:104a4000808f500005003100de0090003e00900095
:104a5000008040008040eb00014878003e0090005c
:104a6000004078000080fa00000006001400fa0000
:104a70006007980071079800020f9800130f9800c4
:104a80006e019000fe019000120798002307980025
:104a900000a02c00a1b9230030079800410798001e
:104aa0000000eb00500798001e0890000000e00096
:104ab00002003a000040eb00670037001e00900043
:104ac000ae009000e00f5000e08f58000c003d0059
:104ad0000e089000d1c2b300014878005e0090003b
:104ae0000000e800500798001e009000ae00900003
:104af00060001000e080180010079800210798005f
:104b00000040eb00004f78001e009000ae009000c7
:104b1000e00f5000e08f58003b003a0010c0b30097
:104b2000004f78001000200001002000300798009e
:104b300041079800340037001e019000ae0190003c
:104b40003e009000ce009000800f5100818f5900f0
:104b5000030031001e4078000004e0002300320012
:104b60001e009000ae0090003e019000ce0190002b
:104b700044f20700004f78008e0890005e0090001d
:104b80000080400003c3b3009ec04100014878008c
:104b90005e0090000000e800500798001e029000a0
:104ba000ae0290001e80fb008000eb003e019000f2
:104bb0008191b900ce019000809bb90086017800f8
:104bc00003014100be0190000018b800010141003e
:104bd000820078000000520081805a00100798007f
:104be0002107980010c0b300004f78003e009000ed
:104bf000ce009000a20020000300200021f2070058
:104c00003007980041079800de0090001e089000d1
:104c1000808f5000050031003e009000ce009000d3
:104c2000e00f5000e08f5800c3ff3a00de00900014
:104c30001e089000808f5000050031008e08900003
:104c40005e009000008040008040eb00014878004a
:104c50005e009000004078000080fa00000006002e
:104c60000e00fa004007980051079800620798006c
:104c7000ce009000110798000071220020079800d4
:104c80000000eb00300798006e0090000000e0008c
:104c900002003a000040eb003f0037000040eb000c
:104ca000004f78001e0090000000e00028003a004d
:104cb00010c0b300004f78001000200020079800bb
:104cc000230037009e0090002e009000808f50003f
:104cd000030031001e4078000004e000170032009d
:104ce0009e0090002e009000000178001100090045
:104cf0008280d800004f7800de0090003e009000d7
:104d00000080400002c3b3009e404100014878008b
:104d10003e0090000000e800300798009e80fb00f5
:104d20002e0090008088b9009e0090000080500006
:104d30001007980010c0b300004f7800ae0090003c
:104d4000d0cc2c000008b8004308de0020079800f3
:104d5000be0090006e009000808f50000300310074
:104d60002e0090000000e000d6ff3a00be00900048
:104d70006e009000808f500005003100de00900032
:104d80003e009000008040008040eb000148780029
:104d90003e009000004078000080fa00000006000d
:104da0001400fa006007980071079800020f98003d
:104db000130f98006e019000fe01900012079800fa
:104dc0002307980000a02c00a1b923003007980009
:104dd000410798000000eb00500798001e08900063
:104de0000000e00002003a000040eb0056003700ef
:104df0000040eb00004f78001e009000ae009000d5
:104e0000e00f5000e08f58003b003a0010c0b300a4
:104e1000004f7800100020000100200030079800ab
:104e200041079800340037001e019000ae01900049
:104e30003e009000ce009000800f5100818f5900fd
:104e4000030031001e4078000004e000230032001f
:104e50003e019000ce0190001e009000ae00900038
:104e600088f10700004f78008e0890005e009000e7
:104e70000080400003c3b3009ec041000148780099
:104e80005e0090000000e800500798001e80fb00c4
:104e90008000eb003e0190008191b900ce019000ae
:104ea000809ab9008401780003014100be0190009e
:104eb0000018b80001014100820078001e01900036
:104ec000ae01900000005100818059001007980049
:104ed0002107980010c0b300004f78003e009000fa
:104ee000ce009000a20020000300200065f1070022
:104ef0003007980041079800de0090001e089000df
:104f0000808f5000050031003e009000ce009000e0
:104f1000e00f5000e08f5800c3ff3a00de00900021
:104f20001e089000808f5000050031008e08900010
:104f30005e009000008040008040eb000148780057
:104f40005e009000004078000080fa00000006003b
:104f50001400fa006007980071079800020f98008b
:104f6000130f98006e019000fe0190001207980048
:104f70002307980000a02c00a1b923003007980057
:104f8000410798000000eb00500798001e089000b1
:104f90000000e00002003a000e08900066003700b2
:104fa0001e009000ae009000e00f5000e08f58000f
:104fb0000c003d000e089000d1c2b30001487800fb
:104fc0005e0090000000e800500798001e0090006e
:104fd000ae00900060001000e080180010079800fc
:104fe000210798000040eb00004f78001e00900061
:104ff000ae009000e00f5000e08f58003b003a00f8
:1050000010c0b300004f7800100020000100200005
:105010003007980041079800340037001e019000c7
:10502000ae0190003e009000ce009000800f510035
:10503000818f5900030031001e4078000004e00019
:10504000230032001e009000ae0090003e01900050
:10505000ce0190000bf10700004f78008e08900001
:105060005e0090000080400003c3b3009ec041007a
:10507000014878005e0090000000e80050079800aa
:105080001e029000ae0290001e80fb008000eb002c
:105090003e0190008191b900ce019000809bb90043
:1050a0008601780003014100be0190000018b8009d
:1050b00001014100820078000000520081805a0006
:1050c000100798002107980010c0b300004f780027
:1050d0003e009000ce009000a200200003002000bf
:1050e000e8f007003007980041079800de009000c4
:1050f0001e089000808f5000050031003e00900097
:10510000ce009000e00f5000e08f5800c3ff3a003f
:10511000de0090001e089000808f500005003100d6
:105120008e0890005e009000008040008040eb0000
:10513000014878000e0890000080fa000000060088
:105140000c00fa00200798003107980042079800e9
:10515000530798005e0090000000e000320032002b
:10516000be0090005e009000808f50000200310071
:10517000de009000310798000000eb00000f78007f
:105180001a0037002e0090001e00400010407800ea
:105190000080fb00100798009e0090000004200093
:1051a000808f5000080036009e009000a00520006f
:1051b000808f500004003e009e00900000022000fe
:1051c00000806800100798004e0090001e0040000c
:1051d0009e00900081407800014878001e009000f9
:1051e0000000e000060032001e0fe8003e009000c4
:1051f0009e007800808f5000e2ff390001003700e8
:10520000000000005e0090009e007800808f50003b
:10521000060031004e0090001e0040008040eb0070
:105220000148780001003700000000000080fa000b
:10523000000006000c00fa002007980031079800d3
:1052400042079800530798005e0090000000e000bd
:1052500032003200be0090005e009000808f50004f
:1052600002003100de009000310798000000eb00e2
:10527000000f78001a0037002e0090001e0040003a
:10528000104078000080fb00100798009e009000fe
:1052900000062000808f5000080036009e0090001d
:1052a000a0072000808f500004003e009e00900068
:1052b0000002200000806800100798004e00900057
:1052c0001e0040009e009000814078000148780058
:1052d0001e0090000000e000060032001e0fe800f3
:1052e0003e0090009e007800808f5000e2ff390061
:1052f00001003700000000005e0090009e00780072
:10530000808f5000060031004e0090001e004000cb
:105310008040eb00014878000100370000000000e9
:105320000080fa00000006000e00fa002007980036
:10533000310798004207980053079800444f98009f
:105340000000eb00000f78003f0037002e009000b7
:105350001e00400090407800214798004e009000c9
:105360001e00400090407800314798004e48900061
:105370000004e00018003200ae40900000c6b30008
:1053800080cf500008003600ae409000a0c7b300a8
:1053900080cf500004003e00ae409000f0cdb3003e
:1053a00000c0600020479800be40900000c6b300d7
:1053b00080cf500008003600be409000a0c7b30068
:1053c00080cf500004003e00be409000f0cdb300fe
:1053d00000c06000304798003e4090000004e000ac
:1053e00007003a002e4090000004e00002003a005e
:1053f0000040eb003700370010c0b3003500370025
:105400002e4090000004e00002003a0000c0eb00d3
:1054100030003700ae4090003e40900080cf5000fa
:105420000200310000c0eb002a003700ae409000bf
:105430003e40900080cf50000200360010c0b30004
:10544000240037001e0fe8003e0090009e00780008
:10545000808f5000040031005e0090009e007800b4
:10546000808f5000b9ff3900be0090005e009000b0
:10547000808f5000090036002e0090001e00400072
:10548000104078000004e00002003a000040eb0009
:105490001000370010c0b3000e003700be009000af
:1054a0005e009000808f5000090031004e00900097
:1054b0001e004000104078000004e00002003a00a6
:1054c0000040eb000300370000c0eb000100370094
:1054d0000040eb000080fa00000006002600fa0001
:1054e000881f7800600f9800710f9800026798007d
:1054f00013179800241798000000eb00100798007d
:105500000000200001f023002007980031079800d8
:105510000040eb00004f780008003700d2cc2c0090
:10552000c3dc23002e009000be009000a1ef070016
:1055300020079800310798001e4fe8000e60900089
:105540009e40780080cf5000f4ff390018c0b300af
:105550006011b8006e089000fe08900010ef070080
:105560000000e000010035000044eb000804e0000a
:105570000d0032006e089000fe08900001f0a200bd
:10558000600f9800710f98009e1090001e00900010
:1055900000804000d1c2b300014878001e00900096
:1055a0000000e800100798002e019000be01900056
:1055b0006e089000fe089000f5ed0700600f98005f
:1055c000710f98006e089000fe0890001eef070013
:1055d00020079800310798002e009000be00900030
:1055e000f3ee070060079800710798002e01900005
:1055f000be0190006e089000fe089000e3ed0700e9
:10560000400798005107980070004700c300200031
:10561000000178006e009000fe0090004cfe070034
:105620000040eb00004f78000f0037009e00900014
:105630002e109000808f50000a0031009e109000c4
:105640001e009000008040009e80fb00f080400023
:10565000eec07800014878001e0090000000e800cd
:10566000100798001e4fe8001e80fb0070004000ed
:105670006e4078000004e000ecff3a009e009000cd
:105680002e109000808f5000080031009e10900076
:105690001e00900000804000e1c2b3000148780085
:1056a0001e0090000000e800100798000040eb008a
:1056b000004f7800270037009e0090002e109000c9
:1056c000808f5000280031000200200003122400c7
:1056d0004e009000de00900036ef07004007980073
:1056e000510798004e009000de009000b0ee0700d9
